# This file has no EOF record
:020000040000FA
:02000000A8292D
:080008000614A000030E8301A1
:10001000A1000A08A2008A110B1E10288B181B28A9
:100020000B192D2822088A00210E8300A00E200E15
:100030000610090033348B10061B0C280108CF0072
:10004000F43081000B114F02A5070318A40A0B120C
:10005000FF30C3000B1D2A282D280B11763081029A
:10006000B51D0B1A342839283528B51B662806110A
:100070005428C30A060C03194E28C3194128C40C7E
:100080005428431C3F280B168B10031C5228C01207
:100090004408C500401AC01640165428031C5428B2
:1000A0000B168B10C01640167630A507031C5C2873
:1000B000A40A031D5C282314061F5F28612818303A
:1000C000CC00CC08031DCC030C280C288A01360870
:1000D000033982076E288428A228BE28CC08031979
:1000E0007B28BF0B5428BF01B70B5428B513B601AA
:1000F0003515B511542806303907BF00B030BC00A3
:100100003D0AB800B60A5428CC08031D9D28BF0B31
:100110005428061F9D280615B5150B128B10B60A1C
:10036000FF30F200BF2102308500FE30F400FF3084
:10037000F200FF30F300BF21F40BB729AB29F20BD9
:10038000BF29F30BBF29080083168B30810077301B
:100390008600FD30850072308F00CE290F1DCE29DA
:1003A00083120830860002308500080007309C0068
:1003B00009309B00C0309F000C1583122B30900039
:1003C000003097002A3092009F000800FB0188301F
:0403D0008B00080096
:084000000200030003000800A8
:02400E005C094B
:02401000FF3F70
